{
  "_format": "hh-sol-artifact-1",
  "contractName": "BlockChainBetBrasil",
  "sourceName": "contracts/BlockChainBetBrasil.sol",
  "abi": [
    {
      "inputs": [],
      "stateMutability": "nonpayable",
      "type": "constructor"
    },
    {
      "anonymous": false,
      "inputs": [
        {
          "indexed": true,
          "internalType": "uint256",
          "name": "rodadaId",
          "type": "uint256"
        },
        {
          "indexed": false,
          "internalType": "uint256",
          "name": "timestamp",
          "type": "uint256"
        }
      ],
      "name": "ApostasFechadas",
      "type": "event"
    },
    {
      "anonymous": false,
      "inputs": [
        {
          "indexed": true,
          "internalType": "uint256",
          "name": "rodadaId",
          "type": "uint256"
        },
        {
          "indexed": false,
          "internalType": "uint256[5]",
          "name": "milhares",
          "type": "uint256[5]"
        },
        {
          "indexed": false,
          "internalType": "uint256[5]",
          "name": "resultadosX",
          "type": "uint256[5]"
        },
        {
          "indexed": false,
          "internalType": "uint256[5]",
          "name": "resultadosY",
          "type": "uint256[5]"
        },
        {
          "indexed": false,
          "internalType": "uint256",
          "name": "timestamp",
          "type": "uint256"
        }
      ],
      "name": "MilharesRegistradosEProcessados",
      "type": "event"
    },
    {
      "anonymous": false,
      "inputs": [
        {
          "indexed": true,
          "internalType": "uint256",
          "name": "rodadaId",
          "type": "uint256"
        },
        {
          "indexed": false,
          "internalType": "uint256",
          "name": "valorDoPoteNaoReivindicado",
          "type": "uint256"
        }
      ],
      "name": "NenhumVencedorNaRodada",
      "type": "event"
    },
    {
      "anonymous": false,
      "inputs": [
        {
          "indexed": true,
          "internalType": "uint256",
          "name": "rodadaId",
          "type": "uint256"
        },
        {
          "indexed": true,
          "internalType": "address",
          "name": "jogador",
          "type": "address"
        },
        {
          "indexed": false,
          "internalType": "uint256",
          "name": "apostaIndex",
          "type": "uint256"
        },
        {
          "indexed": false,
          "internalType": "uint256[5]",
          "name": "prognosticosX",
          "type": "uint256[5]"
        },
        {
          "indexed": false,
          "internalType": "uint256[5]",
          "name": "prognosticosY",
          "type": "uint256[5]"
        }
      ],
      "name": "NovaApostaFeita",
      "type": "event"
    },
    {
      "anonymous": false,
      "inputs": [
        {
          "indexed": true,
          "internalType": "uint256",
          "name": "rodadaId",
          "type": "uint256"
        },
        {
          "indexed": false,
          "internalType": "uint256",
          "name": "ticketPrice",
          "type": "uint256"
        },
        {
          "indexed": false,
          "internalType": "uint256",
          "name": "timestamp",
          "type": "uint256"
        }
      ],
      "name": "NovaRodadaIniciada",
      "type": "event"
    },
    {
      "anonymous": false,
      "inputs": [
        {
          "indexed": true,
          "internalType": "address",
          "name": "previousOwner",
          "type": "address"
        },
        {
          "indexed": true,
          "internalType": "address",
          "name": "newOwner",
          "type": "address"
        }
      ],
      "name": "OwnershipTransferred",
      "type": "event"
    },
    {
      "anonymous": false,
      "inputs": [
        {
          "indexed": false,
          "internalType": "address",
          "name": "account",
          "type": "address"
        }
      ],
      "name": "Paused",
      "type": "event"
    },
    {
      "anonymous": false,
      "inputs": [
        {
          "indexed": true,
          "internalType": "uint256",
          "name": "rodadaId",
          "type": "uint256"
        },
        {
          "indexed": true,
          "internalType": "address",
          "name": "jogador",
          "type": "address"
        },
        {
          "indexed": false,
          "internalType": "uint256",
          "name": "valor",
          "type": "uint256"
        }
      ],
      "name": "PremioReivindicado",
      "type": "event"
    },
    {
      "anonymous": false,
      "inputs": [
        {
          "indexed": true,
          "internalType": "uint256",
          "name": "rodadaId",
          "type": "uint256"
        },
        {
          "indexed": false,
          "internalType": "uint256",
          "name": "numeroDeVencedores",
          "type": "uint256"
        },
        {
          "indexed": false,
          "internalType": "uint256",
          "name": "premioPorVencedor",
          "type": "uint256"
        }
      ],
      "name": "PremiosCalculados",
      "type": "event"
    },
    {
      "anonymous": false,
      "inputs": [
        {
          "indexed": true,
          "internalType": "address",
          "name": "para",
          "type": "address"
        },
        {
          "indexed": false,
          "internalType": "uint256",
          "name": "valor",
          "type": "uint256"
        }
      ],
      "name": "TaxasRetiradas",
      "type": "event"
    },
    {
      "anonymous": false,
      "inputs": [
        {
          "indexed": false,
          "internalType": "address",
          "name": "account",
          "type": "address"
        }
      ],
      "name": "Unpaused",
      "type": "event"
    },
    {
      "inputs": [
        {
          "internalType": "uint256[5]",
          "name": "_prognosticosX",
          "type": "uint256[5]"
        },
        {
          "internalType": "uint256[5]",
          "name": "_prognosticosY",
          "type": "uint256[5]"
        }
      ],
      "name": "apostar",
      "outputs": [],
      "stateMutability": "payable",
      "type": "function"
    },
    {
      "inputs": [
        {
          "internalType": "uint256",
          "name": "_rodadaId",
          "type": "uint256"
        },
        {
          "internalType": "address",
          "name": "_jogador",
          "type": "address"
        }
      ],
      "name": "checarSePremioFoiReivindicado",
      "outputs": [
        {
          "internalType": "bool",
          "name": "",
          "type": "bool"
        }
      ],
      "stateMutability": "view",
      "type": "function"
    },
    {
      "inputs": [],
      "name": "despausar",
      "outputs": [],
      "stateMutability": "nonpayable",
      "type": "function"
    },
    {
      "inputs": [
        {
          "internalType": "uint256",
          "name": "_rodadaId",
          "type": "uint256"
        }
      ],
      "name": "fecharApostas",
      "outputs": [],
      "stateMutability": "nonpayable",
      "type": "function"
    },
    {
      "inputs": [
        {
          "internalType": "uint256",
          "name": "_rodadaId",
          "type": "uint256"
        },
        {
          "internalType": "uint256",
          "name": "_startIndex",
          "type": "uint256"
        },
        {
          "internalType": "uint256",
          "name": "_pageSize",
          "type": "uint256"
        }
      ],
      "name": "getApostasDaRodada",
      "outputs": [
        {
          "components": [
            {
              "internalType": "address",
              "name": "jogador",
              "type": "address"
            },
            {
              "internalType": "uint256[5]",
              "name": "prognosticosX",
              "type": "uint256[5]"
            },
            {
              "internalType": "uint256[5]",
              "name": "prognosticosY",
              "type": "uint256[5]"
            },
            {
              "internalType": "uint256",
              "name": "valorPago",
              "type": "uint256"
            }
          ],
          "internalType": "struct BlockChainBetBrasil.Aposta[]",
          "name": "apostasPaginadas",
          "type": "tuple[]"
        }
      ],
      "stateMutability": "view",
      "type": "function"
    },
    {
      "inputs": [
        {
          "internalType": "uint256",
          "name": "_rodadaId",
          "type": "uint256"
        },
        {
          "internalType": "address",
          "name": "_jogador",
          "type": "address"
        }
      ],
      "name": "getPremioParaReivindicar",
      "outputs": [
        {
          "internalType": "uint256",
          "name": "",
          "type": "uint256"
        }
      ],
      "stateMutability": "view",
      "type": "function"
    },
    {
      "inputs": [
        {
          "internalType": "uint256",
          "name": "_rodadaId",
          "type": "uint256"
        }
      ],
      "name": "getRodadaInfoBasica",
      "outputs": [
        {
          "internalType": "uint256",
          "name": "id",
          "type": "uint256"
        },
        {
          "internalType": "enum BlockChainBetBrasil.StatusRodada",
          "name": "status",
          "type": "uint8"
        },
        {
          "internalType": "uint256",
          "name": "ticketPrice",
          "type": "uint256"
        },
        {
          "internalType": "uint256",
          "name": "totalArrecadado",
          "type": "uint256"
        },
        {
          "internalType": "uint256",
          "name": "premioTotal",
          "type": "uint256"
        },
        {
          "internalType": "uint256",
          "name": "numApostas",
          "type": "uint256"
        },
        {
          "internalType": "uint256",
          "name": "numeroDeVencedores",
          "type": "uint256"
        }
      ],
      "stateMutability": "view",
      "type": "function"
    },
    {
      "inputs": [
        {
          "internalType": "uint256",
          "name": "_rodadaId",
          "type": "uint256"
        }
      ],
      "name": "getRodadaResultados",
      "outputs": [
        {
          "internalType": "uint256[5]",
          "name": "milharesSorteados",
          "type": "uint256[5]"
        },
        {
          "internalType": "bool",
          "name": "milharesForamInseridos",
          "type": "bool"
        },
        {
          "internalType": "uint256[5]",
          "name": "resultadosX",
          "type": "uint256[5]"
        },
        {
          "internalType": "uint256[5]",
          "name": "resultadosY",
          "type": "uint256[5]"
        }
      ],
      "stateMutability": "view",
      "type": "function"
    },
    {
      "inputs": [
        {
          "internalType": "uint256",
          "name": "_rodadaId",
          "type": "uint256"
        }
      ],
      "name": "getRodadaTimestamps",
      "outputs": [
        {
          "internalType": "uint256",
          "name": "timestampAbertura",
          "type": "uint256"
        },
        {
          "internalType": "uint256",
          "name": "timestampFechamentoApostas",
          "type": "uint256"
        },
        {
          "internalType": "uint256",
          "name": "timestampResultadosProcessados",
          "type": "uint256"
        }
      ],
      "stateMutability": "view",
      "type": "function"
    },
    {
      "inputs": [
        {
          "internalType": "uint256",
          "name": "_ticketPrice",
          "type": "uint256"
        }
      ],
      "name": "iniciarNovaRodada",
      "outputs": [],
      "stateMutability": "nonpayable",
      "type": "function"
    },
    {
      "inputs": [],
      "name": "owner",
      "outputs": [
        {
          "internalType": "address",
          "name": "",
          "type": "address"
        }
      ],
      "stateMutability": "view",
      "type": "function"
    },
    {
      "inputs": [],
      "name": "pausar",
      "outputs": [],
      "stateMutability": "nonpayable",
      "type": "function"
    },
    {
      "inputs": [],
      "name": "paused",
      "outputs": [
        {
          "internalType": "bool",
          "name": "",
          "type": "bool"
        }
      ],
      "stateMutability": "view",
      "type": "function"
    },
    {
      "inputs": [
        {
          "internalType": "uint256",
          "name": "_rodadaId",
          "type": "uint256"
        },
        {
          "internalType": "uint256[5]",
          "name": "_milhares",
          "type": "uint256[5]"
        }
      ],
      "name": "registrarResultadosDaFederalEProcessar",
      "outputs": [],
      "stateMutability": "nonpayable",
      "type": "function"
    },
    {
      "inputs": [
        {
          "internalType": "uint256",
          "name": "_rodadaId",
          "type": "uint256"
        }
      ],
      "name": "reivindicarPremio",
      "outputs": [],
      "stateMutability": "nonpayable",
      "type": "function"
    },
    {
      "inputs": [],
      "name": "renounceOwnership",
      "outputs": [],
      "stateMutability": "nonpayable",
      "type": "function"
    },
    {
      "inputs": [
        {
          "internalType": "address payable",
          "name": "_para",
          "type": "address"
        }
      ],
      "name": "retirarTaxas",
      "outputs": [],
      "stateMutability": "nonpayable",
      "type": "function"
    },
    {
      "inputs": [],
      "name": "rodadaAtualId",
      "outputs": [
        {
          "internalType": "uint256",
          "name": "",
          "type": "uint256"
        }
      ],
      "stateMutability": "view",
      "type": "function"
    },
    {
      "inputs": [
        {
          "internalType": "uint256",
          "name": "",
          "type": "uint256"
        }
      ],
      "name": "rodadas",
      "outputs": [
        {
          "internalType": "uint256",
          "name": "id",
          "type": "uint256"
        },
        {
          "internalType": "enum BlockChainBetBrasil.StatusRodada",
          "name": "status",
          "type": "uint8"
        },
        {
          "internalType": "uint256",
          "name": "ticketPrice",
          "type": "uint256"
        },
        {
          "internalType": "uint256",
          "name": "totalArrecadado",
          "type": "uint256"
        },
        {
          "internalType": "uint256",
          "name": "premioTotal",
          "type": "uint256"
        },
        {
          "internalType": "bool",
          "name": "milharesForamInseridos",
          "type": "bool"
        },
        {
          "internalType": "uint256",
          "name": "numeroDeVencedores",
          "type": "uint256"
        },
        {
          "internalType": "uint256",
          "name": "timestampAbertura",
          "type": "uint256"
        },
        {
          "internalType": "uint256",
          "name": "timestampFechamentoApostas",
          "type": "uint256"
        },
        {
          "internalType": "uint256",
          "name": "timestampResultadosProcessados",
          "type": "uint256"
        }
      ],
      "stateMutability": "view",
      "type": "function"
    },
    {
      "inputs": [
        {
          "internalType": "uint256",
          "name": "_novaTaxaPercentual",
          "type": "uint256"
        }
      ],
      "name": "setTaxaPlataforma",
      "outputs": [],
      "stateMutability": "nonpayable",
      "type": "function"
    },
    {
      "inputs": [
        {
          "internalType": "uint256",
          "name": "_novoPreco",
          "type": "uint256"
        }
      ],
      "name": "setTicketPriceBase",
      "outputs": [],
      "stateMutability": "nonpayable",
      "type": "function"
    },
    {
      "inputs": [
        {
          "internalType": "uint256",
          "name": "_rodadaIdParaContexto",
          "type": "uint256"
        },
        {
          "internalType": "uint256[5]",
          "name": "_milhares",
          "type": "uint256[5]"
        }
      ],
      "name": "simularConversaoMilhares",
      "outputs": [
        {
          "internalType": "uint256[5]",
          "name": "resultadosX",
          "type": "uint256[5]"
        },
        {
          "internalType": "uint256[5]",
          "name": "resultadosY",
          "type": "uint256[5]"
        }
      ],
      "stateMutability": "pure",
      "type": "function"
    },
    {
      "inputs": [],
      "name": "taxaPlataformaPercentual",
      "outputs": [
        {
          "internalType": "uint256",
          "name": "",
          "type": "uint256"
        }
      ],
      "stateMutability": "view",
      "type": "function"
    },
    {
      "inputs": [],
      "name": "taxasAcumuladas",
      "outputs": [
        {
          "internalType": "uint256",
          "name": "",
          "type": "uint256"
        }
      ],
      "stateMutability": "view",
      "type": "function"
    },
    {
      "inputs": [],
      "name": "ticketPriceBase",
      "outputs": [
        {
          "internalType": "uint256",
          "name": "",
          "type": "uint256"
        }
      ],
      "stateMutability": "view",
      "type": "function"
    },
    {
      "inputs": [
        {
          "internalType": "address",
          "name": "newOwner",
          "type": "address"
        }
      ],
      "name": "transferOwnership",
      "outputs": [],
      "stateMutability": "nonpayable",
      "type": "function"
    }
  ],
  "bytecode": "0x60808060405234610076576000543360018060a01b0382167f8be0079c531659141344cd1fd0a4f28419497f9722a3daafe3b4186f6b6457e0600080a36001600160a81b0319163360ff60a01b191617600090815560018055662386f26fc1000060045560058055600255611d37908161007c8239f35b600080fdfe6080604052600436101561001257600080fd5b60003560e01c80630dc4f11c1461174057806314ba1c261461172257806319e22778146116825780632f672fb91461161657806331a30ac4146115f857806332599caf146115a85780635530e39a146114bd5780635c4541e41461149f5780635c975abb146114795780636ac8716714611324578063715018a6146112cb5780637e2164aa1461125d578063823ca33b1461121257806383d6d087146111b057806388cfcdac14610e605780638da5cb5b14610e375780638f13995314610dbf5780639552b60114610da15780639b564454146108415780639b982ea114610636578063ae1ae428146105f0578063aef547291461048d578063e4ddea0d146103ae578063f27fa80714610312578063f2fde38b146102475763f98ec8d51461013a57600080fd5b34610242576020366003190112610242576004356001600160a01b0381169081900361024257610168611843565b610170611ab3565b6006548015610204576000600655600080808084865af161018f611a73565b50156101c65760207f5427210fd21f5253836a17d94cf298dc03dd1cb238d9065946b73eb951decb1c91604051908152a260018055005b60405162461bcd60e51b815260206004820152601660248201527546616c686120616f207265746972617220746178617360501b6044820152606490fd5b60405162461bcd60e51b815260206004820152601660248201527529b2b6903a30bc30b9903830b930903932ba34b930b960511b6044820152606490fd5b600080fd5b34610242576020366003190112610242576004356001600160a01b038181169182900361024257610276611843565b81156102be57600054826bffffffffffffffffffffffff60a01b821617600055167f8be0079c531659141344cd1fd0a4f28419497f9722a3daafe3b4186f6b6457e0600080a3005b60405162461bcd60e51b815260206004820152602660248201527f4f776e61626c653a206e6577206f776e657220697320746865207a65726f206160448201526564647265737360d01b6064820152608490fd5b346102425760003660031901126102425761032b611843565b60005460ff8160a01c16156103725760ff60a01b19166000556040513381527f5db9ee0a495bf2e6ff9c91a7834c1ba4fdd244a5e8aa4e537bd38aeae4b073aa90602090a1005b60405162461bcd60e51b815260206004820152601460248201527314185d5cd8589b194e881b9bdd081c185d5cd95960621b6044820152606490fd5b346102425760203660031901126102425760a06040516103cd81611a00565b36903760a06040516103de81611a00565b36903760a06040516103ef81611a00565b3690376004356000526003602052610200604060002061048b601161048060ff600b8501541693604051946104278660068401611a4b565b61043086611a00565b6104596040519261044484600c8301611a4b565b61044d84611a00565b60405195869101611a4b565b61046284611a00565b61046f60405180976117db565b151560a086015260c08501906117db565b6101608301906117db565bf35b34610242576020366003190112610242576004356104a9611843565b6104b16118aa565b6002548061053f575b6104c39061189b565b9081600255816000526003602052604060002091825560018201600160ff1982541617905580151560001461053557905b8160028201556019429101557fb9eb494b9ee064755f8107a0c1f687a9825d362cc8aaffdef29109167ae6b3866040600254928151908152426020820152a2005b50600454906104f4565b80600052600360205260ff60016040600020015416600581101590816105ce57600481149182156105e4575b82156105bd575b50506104ba5760405162461bcd60e51b815260206004820152601e60248201527f526f6461646120616e746572696f72206e616f2066696e616c697a61646100006044820152606490fd5b9091506105ce576003148380610572565b634e487b7160e01b600052602160045260246000fd5b5080159150600061056b565b3461024257602036600319011261024257600435600052600360205260606040600020601981015490601b601a8201549101549060405192835260208301526040820152f35b346102425760208060031936011261024257600435610653611ab3565b61065b6118aa565b806000526003825260406000209160ff60018401541660058110156105ce5760038114908115610836575b50156107df573360005260178301815260406000205492831561079a576018013360005280825260ff6040600020541661075c573360005281526040600020600160ff19825416179055600080808086335af16106e1611a73565b5015610718577f3dc95316bc726bbe0b91a1fcff646d2ed55f44c568c056f1f2338e79681bab60906040519384523393a360018055005b6064906040519062461bcd60e51b82526004820152601a60248201527f46616c686120616f207472616e736665726972207072656d696f0000000000006044820152fd5b60405162461bcd60e51b81526004810183905260166024820152755072656d696f206a612072656976696e64696361646f60501b6044820152606490fd5b60405162461bcd60e51b815260048101839052601e60248201527f4e656e68756d207072656d696f20706172612072656976696e646963617200006044820152606490fd5b6084906040519062461bcd60e51b82526004820152602a60248201527f5072656d696f73206e616f20646973706f6e6976656973206f7520726f6461646044820152696120696e76616c69646160b01b6064820152fd5b600491501484610686565b346102425761084f36611826565b610857611843565b61085f6118aa565b81600052600360205260ff6001604060002001541660058110156105ce57600261088991146118f1565b816000526003602052604060002090600b820160ff815416610d4b5790839160005b60058110610d2357508160005b60058110610d09575050805460ff1916600117905560005b60058110610bda57506102007f963df2201c4e5c6b8a4d8adac3fc5a7079901e8669849ab111566d6fae66d9fe9142601b86015560a060405191823761091c60a08201600c8701611a4b565b61092d610140820160118701611a4b565b426101e0820152a2816000526003602052604060002091600383015460055490818102918183041490151715610bc45761096c60648204600654611a3e565b600655610980606482046003860154611b25565b9384600482015560058101549461099686611b32565b926109a46040519485611a1c565b868452601f196109b388611b32565b0136602086013760009660005b818110610aea5750506016830187905586159182610a8b575050600482015490610a7557859004919060170160005b868110610a3a5750505060406001947f5af8c49f6caa59eaab3bf32b454661d52e79f7c4d07bc28911460c5bb1f1c6869282519182526020820152a25b01805460ff19166003179055005b610a70906001600160a01b03610a508286611b4a565b5116600052826020526040600020610a69868254611a3e565b905561189b565b6109ef565b634e487b7160e01b600052601260045260246000fd5b600197507f3379a7cd8ec4d7957de965914eb51ddea11aeeeb2b040212e7010136db7894c19450610ade9250606460209492610acb600393600654611a3e565b6006556000600485015504910154611b25565b604051908152a2610a2c565b610af78160058701611b09565b50600160005b60058110610b47575b50610b1b575b50610b169061189b565b6109c0565b549098610b1691610b4091906001600160a01b0316610b3a828a611b4a565b5261189b565b9890610b0c565b610b5481600185016119d4565b90549060031b1c610b6882600c8b016119d4565b90549060031b1c14801590610b94575b610b8a57610b859061189b565b610afd565b505060008b610b06565b50610ba281600685016119d4565b90549060031b1c610bb68260118b016119d4565b90549060031b1c1415610b78565b634e487b7160e01b600052601160045260246000fd5b909150610bea81600685016119d4565b90549060031b1c60196040516020810190610c4181610c33878b888791606f939183526e084989e8696869082929c848aa8beb608b1b6020840152602f830152604f8201520190565b03601f198101835282611a1c565b5190200690600182018211610bc457610c806019926001610c6586600c8a016119d4565b919092019082549060031b91821b91600019901b1916179055565b604051610cbf81610c33868a60208401968791606f939183526e424c4f434b434841494e4245545f5960881b6020840152602f830152604f8201520190565b519020069060018201809211610bc457610cfc610d0192610ce383601188016119d4565b90919082549060031b91821b91600019901b1916179055565b61189b565b9083916108d0565b8135868201600601558694506020909101906001016108b8565b829350610cfc61270f610d3a83610d429596611977565b351115611988565b908492916108ab565b60405162461bcd60e51b815260206004820152602860248201527f526573756c7461646f73206a6120696e73657269646f732070617261206573746044820152676120726f6461646160c01b6064820152608490fd5b34610242576000366003190112610242576020600554604051908152f35b3461024257602036600319011261024257600435600052600360205260e0604060002080549060ff6001820154169060028101546003820154600483015491610e1c60166005860154950154956040519788526020880190611803565b60408601526060850152608084015260a083015260c0820152f35b34610242576000366003190112610242576000546040516001600160a01b039091168152602090f35b6101403660031901126102425760a4368111610242576101449036821161024257610e896118aa565b610e91611ab3565b600254918260005260206003815260019360ff85604060002001541690600591828110156105ce5786610ec491146118f1565b600052600382526040600020906002820154340361116b5760005b81811061108957508082019360405191610ef8836119e4565b33835260405191610f0883611a00565b600486845b8a8310611079575085019384525060405190610f2882611a00565b8887835b838310611069575050505060408401908152606084019234845287546801000000000000000081101561105357808b610f6892018a5589611b09565b95909561103d575185546001600160a01b0319166001600160a01b0391909116178555518960005b84811061102957505050518860005b838110611014575050505090600b600393925191015501610fc1348254611a3e565b90556002549154600019810193908411610bc45760a06004819360405196875286013760c08401377f104a8d3c2521836a18486b6a637b9d7d8bac46c73b12c50da64e3ca80384939b6101603393a38055005b87835193019260068288010155018990610f9f565b888351930192828289010155018a90610f90565b634e487b7160e01b600052600060045260246000fd5b634e487b7160e01b600052604160045260246000fd5b8235815291810191899101610f2c565b8235815291810191889101610f0d565b866110938261193d565b35101580611157575b1561111957866110ab82611965565b35101580611105575b156110c7576110c29061189b565b610edf565b60405162461bcd60e51b815260048101859052601660248201527550726f676e6f737469636f205920696e76616c69646f60501b6044820152606490fd5b50601961111182611965565b3511156110b4565b60405162461bcd60e51b815260048101859052601660248201527550726f676e6f737469636f205820696e76616c69646f60501b6044820152606490fd5b5060196111638261193d565b35111561109c565b60405162461bcd60e51b815260048101849052601960248201527f56616c6f722064612061706f73746120696e636f727265746f000000000000006044820152606490fd5b34610242576000366003190112610242576111c9611843565b6111d16118aa565b6000805460ff60a01b1916600160a01b1790556040513381527f62e78cea01bee320cd4e420270b5ea74000d11b0c9f74754ebdbfc544b05a25890602090a1005b346102425760403660031901126102425761122b611810565b600435600052600360205260176040600020019060018060a01b03166000526020526020604060002054604051908152f35b3461024257602036600319011261024257600435611279611843565b6032811161128657600555005b60405162461bcd60e51b815260206004820152601760248201527f54617861206e616f20706f646520736572203e203530250000000000000000006044820152606490fd5b34610242576000366003190112610242576112e4611843565b600080546001600160a01b0319811682556001600160a01b03167f8be0079c531659141344cd1fd0a4f28419497f9722a3daafe3b4186f6b6457e08280a3005b346102425761133236611826565b6040519061133f82611a00565b60a03683376040519261135184611a00565b60a036853760005b60058110611380576101408461048b8761137660405180946117db565b60a08301906117db565b61139061270f610d3a8386611977565b61139a8184611977565b35906040519160209081840191846113dc8588858791606f939183526e084989e8696869082929c848aa8beb608b1b6020840152602f830152604f8201520190565b03946113f0601f1996878101835282611a1c565b601993849151902006600195868201809211610bc457879261145892611416888d611977565b526040519081019485526e424c4f434b434841494e4245545f5960881b6020860152602f850193909352604f840186905282606f850103908101835282611a1c565b51902006918201809211610bc45761147491610b3a8288611977565b611359565b3461024257600036600319011261024257602060ff60005460a01c166040519015158152f35b34610242576000366003190112610242576020600654604051908152f35b34610242576020366003190112610242576004356114d9611843565b6114e16118aa565b80600052600360205260ff6001604060002001541660058110156105ce57600161150b91146118f1565b600254810361156357806000526003602052604060002060018101600260ff19825416179055601a429101557faa7d4fc8677b48a8144f3a84996cfd70e75301ec9afe26fab2d1cb89da93120f6020604051428152a2005b60405162461bcd60e51b815260206004820152601b60248201527f536f20706f64652066656368617220726f6461646120617475616c00000000006044820152606490fd5b34610242576040366003190112610242576115c1611810565b600435600052600360205260186040600020019060018060a01b0316600052602052602060ff604060002054166040519015158152f35b34610242576000366003190112610242576020600454604051908152f35b3461024257602036600319011261024257600435611632611843565b801561163d57600455005b60405162461bcd60e51b815260206004820152601d60248201527f507265636f206465766520736572206d61696f7220717565207a65726f0000006044820152606490fd5b34610242576020366003190112610242576004356000526003602052610140604060002080549060ff6001820154169060028101546003820154600483015460ff600b85015416906016850154926019860154946116f4601b601a890154980154986040519a8b5260208b0190611803565b604089015260608801526080870152151560a086015260c085015260e0840152610100830152610120820152f35b34610242576000366003190112610242576020600254604051908152f35b346102425760608060031936011261024257611763604435602435600435611b5e565b6040519060208083018184528251809152816040850193019160005b82811061178c5785850386f35b9091929382610180600192898851858060a01b0381511683526117b585820151868501906117db565b6117c7604082015160c08501906117db565b01516101608201520195019392910161177f565b6000915b600583106117ec57505050565b6001908251815260208091019201920191906117df565b9060058210156105ce5752565b602435906001600160a01b038216820361024257565b9060c0600319830112610242576004359160c41161024257602490565b6000546001600160a01b0316330361185757565b606460405162461bcd60e51b815260206004820152602060248201527f4f776e61626c653a2063616c6c6572206973206e6f7420746865206f776e65726044820152fd5b6000198114610bc45760010190565b60ff60005460a01c166118b957565b60405162461bcd60e51b815260206004820152601060248201526f14185d5cd8589b194e881c185d5cd95960821b6044820152606490fd5b156118f857565b60405162461bcd60e51b815260206004820152601960248201527f53746174757320646120726f6461646120696e76616c69646f000000000000006044820152606490fd5b600581101561194f5760051b60040190565b634e487b7160e01b600052603260045260246000fd5b600581101561194f5760051b60a40190565b90600581101561194f5760051b0190565b1561198f57565b60405162461bcd60e51b815260206004820152601860248201527f4d696c68617220696e76616c6964612028302d393939392900000000000000006044820152606490fd5b600582101561194f570190600090565b6080810190811067ffffffffffffffff82111761105357604052565b60a0810190811067ffffffffffffffff82111761105357604052565b90601f8019910116810190811067ffffffffffffffff82111761105357604052565b91908201809211610bc457565b906000905b60058210611a5d57505050565b6001602081928554815201930191019091611a50565b3d15611aae573d9067ffffffffffffffff82116110535760405191611aa2601f8201601f191660200184611a1c565b82523d6000602084013e565b606090565b600260015414611ac4576002600155565b60405162461bcd60e51b815260206004820152601f60248201527f5265656e7472616e637947756172643a207265656e7472616e742063616c6c006044820152606490fd5b805482101561194f57600052600c602060002091020190600090565b91908203918211610bc457565b67ffffffffffffffff81116110535760051b60200190565b805182101561194f5760209160051b010190565b916000928352602090600382526040906005828620019081549081861015611cc857611b9e91611b8f879283611a3e565b90808211611cc0575b50611b25565b93611ba885611b32565b95611bb584519788611a1c565b858752601f19611bc487611b32565b0185825b828110611c75575050505b858110611be35750505050505090565b80611bfa611bf4611c709385611a3e565b85611b09565b50600b865191611c09836119e4565b80546001600160a01b031683528751611c258160018401611a4b565b611c2e81611a00565b898401528751611c418160068401611a4b565b611c4a81611a00565b8884015201546060820152611c5f828a611b4a565b52611c6a8189611b4a565b5061189b565b611bd3565b8651611c80816119e4565b8481528751611c8e81611a00565b60a0908136823784830152885190611ca582611a00565b3682378882015284606082015282828c010152018690611bc8565b905038611b98565b50508151949350509083019067ffffffffffffffff821184831017611ced5752815290565b634e487b7160e01b83526041600452602483fdfea264697066735822122058d45d0ff0f0c61647eb5155f5d9303e1b0318467b6e0cfa8f4db80351d98f8464736f6c63430008130033",
  "linkReferences": {},
  "deployedLinkReferences": {}
}