{
  "_format": "hh-sol-artifact-1",
  "contractName": "BlockChainBetBrasil",
  "sourceName": "contracts/BlockChainBetBrasil.sol",
  "abi": [
    {
      "inputs": [
        {
          "internalType": "address",
          "name": "_stablecoinAddress",
          "type": "address"
        },
        {
          "internalType": "uint256",
          "name": "_initialTicketPriceBase",
          "type": "uint256"
        }
      ],
      "stateMutability": "nonpayable",
      "type": "constructor"
    },
    {
      "inputs": [],
      "name": "EnforcedPause",
      "type": "error"
    },
    {
      "inputs": [],
      "name": "ExpectedPause",
      "type": "error"
    },
    {
      "inputs": [
        {
          "internalType": "address",
          "name": "owner",
          "type": "address"
        }
      ],
      "name": "OwnableInvalidOwner",
      "type": "error"
    },
    {
      "inputs": [
        {
          "internalType": "address",
          "name": "account",
          "type": "address"
        }
      ],
      "name": "OwnableUnauthorizedAccount",
      "type": "error"
    },
    {
      "inputs": [],
      "name": "ReentrancyGuardReentrantCall",
      "type": "error"
    },
    {
      "anonymous": false,
      "inputs": [
        {
          "indexed": true,
          "internalType": "uint256",
          "name": "rodadaId",
          "type": "uint256"
        },
        {
          "indexed": false,
          "internalType": "uint256",
          "name": "timestamp",
          "type": "uint256"
        }
      ],
      "name": "ApostasFechadas",
      "type": "event"
    },
    {
      "anonymous": false,
      "inputs": [
        {
          "indexed": true,
          "internalType": "uint256",
          "name": "rodadaId",
          "type": "uint256"
        },
        {
          "indexed": false,
          "internalType": "uint256[5]",
          "name": "milhares",
          "type": "uint256[5]"
        },
        {
          "indexed": false,
          "internalType": "uint256[5]",
          "name": "resultadosX",
          "type": "uint256[5]"
        },
        {
          "indexed": false,
          "internalType": "uint256[5]",
          "name": "resultadosY",
          "type": "uint256[5]"
        },
        {
          "indexed": false,
          "internalType": "uint256",
          "name": "timestamp",
          "type": "uint256"
        }
      ],
      "name": "MilharesRegistradosEProcessados",
      "type": "event"
    },
    {
      "anonymous": false,
      "inputs": [
        {
          "indexed": true,
          "internalType": "uint256",
          "name": "rodadaId",
          "type": "uint256"
        },
        {
          "indexed": false,
          "internalType": "uint256",
          "name": "valorDoPoteNaoReivindicado",
          "type": "uint256"
        }
      ],
      "name": "NenhumVencedorNaRodada",
      "type": "event"
    },
    {
      "anonymous": false,
      "inputs": [
        {
          "indexed": true,
          "internalType": "uint256",
          "name": "rodadaId",
          "type": "uint256"
        },
        {
          "indexed": true,
          "internalType": "address",
          "name": "jogador",
          "type": "address"
        },
        {
          "indexed": false,
          "internalType": "uint256",
          "name": "apostaIndex",
          "type": "uint256"
        },
        {
          "indexed": false,
          "internalType": "uint256[5]",
          "name": "prognosticosX",
          "type": "uint256[5]"
        },
        {
          "indexed": false,
          "internalType": "uint256[5]",
          "name": "prognosticosY",
          "type": "uint256[5]"
        }
      ],
      "name": "NovaApostaFeita",
      "type": "event"
    },
    {
      "anonymous": false,
      "inputs": [
        {
          "indexed": true,
          "internalType": "uint256",
          "name": "rodadaId",
          "type": "uint256"
        },
        {
          "indexed": false,
          "internalType": "uint256",
          "name": "ticketPrice",
          "type": "uint256"
        },
        {
          "indexed": false,
          "internalType": "uint256",
          "name": "timestamp",
          "type": "uint256"
        }
      ],
      "name": "NovaRodadaIniciada",
      "type": "event"
    },
    {
      "anonymous": false,
      "inputs": [
        {
          "indexed": true,
          "internalType": "address",
          "name": "previousOwner",
          "type": "address"
        },
        {
          "indexed": true,
          "internalType": "address",
          "name": "newOwner",
          "type": "address"
        }
      ],
      "name": "OwnershipTransferStarted",
      "type": "event"
    },
    {
      "anonymous": false,
      "inputs": [
        {
          "indexed": true,
          "internalType": "address",
          "name": "previousOwner",
          "type": "address"
        },
        {
          "indexed": true,
          "internalType": "address",
          "name": "newOwner",
          "type": "address"
        }
      ],
      "name": "OwnershipTransferred",
      "type": "event"
    },
    {
      "anonymous": false,
      "inputs": [
        {
          "indexed": false,
          "internalType": "address",
          "name": "account",
          "type": "address"
        }
      ],
      "name": "Paused",
      "type": "event"
    },
    {
      "anonymous": false,
      "inputs": [
        {
          "indexed": true,
          "internalType": "uint256",
          "name": "novoPreco",
          "type": "uint256"
        },
        {
          "indexed": false,
          "internalType": "address",
          "name": "por",
          "type": "address"
        }
      ],
      "name": "PrecoBaseDoTicketAtualizado",
      "type": "event"
    },
    {
      "anonymous": false,
      "inputs": [
        {
          "indexed": true,
          "internalType": "uint256",
          "name": "rodadaId",
          "type": "uint256"
        },
        {
          "indexed": true,
          "internalType": "address",
          "name": "jogador",
          "type": "address"
        },
        {
          "indexed": false,
          "internalType": "uint256",
          "name": "valor",
          "type": "uint256"
        }
      ],
      "name": "PremioReivindicado",
      "type": "event"
    },
    {
      "anonymous": false,
      "inputs": [
        {
          "indexed": true,
          "internalType": "uint256",
          "name": "rodadaId",
          "type": "uint256"
        },
        {
          "indexed": false,
          "internalType": "uint256",
          "name": "numeroDeVencedores",
          "type": "uint256"
        },
        {
          "indexed": false,
          "internalType": "uint256",
          "name": "premioPorVencedor",
          "type": "uint256"
        }
      ],
      "name": "PremiosCalculados",
      "type": "event"
    },
    {
      "anonymous": false,
      "inputs": [
        {
          "indexed": true,
          "internalType": "uint256",
          "name": "novaTaxa",
          "type": "uint256"
        },
        {
          "indexed": false,
          "internalType": "address",
          "name": "por",
          "type": "address"
        }
      ],
      "name": "TaxaDaPlataformaAtualizada",
      "type": "event"
    },
    {
      "anonymous": false,
      "inputs": [
        {
          "indexed": true,
          "internalType": "address",
          "name": "para",
          "type": "address"
        },
        {
          "indexed": false,
          "internalType": "uint256",
          "name": "valor",
          "type": "uint256"
        }
      ],
      "name": "TaxasRetiradas",
      "type": "event"
    },
    {
      "anonymous": false,
      "inputs": [
        {
          "indexed": false,
          "internalType": "address",
          "name": "account",
          "type": "address"
        }
      ],
      "name": "Unpaused",
      "type": "event"
    },
    {
      "inputs": [],
      "name": "acceptOwnership",
      "outputs": [],
      "stateMutability": "nonpayable",
      "type": "function"
    },
    {
      "inputs": [
        {
          "internalType": "uint256[5]",
          "name": "_prognosticosX",
          "type": "uint256[5]"
        },
        {
          "internalType": "uint256[5]",
          "name": "_prognosticosY",
          "type": "uint256[5]"
        }
      ],
      "name": "apostar",
      "outputs": [],
      "stateMutability": "nonpayable",
      "type": "function"
    },
    {
      "inputs": [],
      "name": "despausar",
      "outputs": [],
      "stateMutability": "nonpayable",
      "type": "function"
    },
    {
      "inputs": [
        {
          "internalType": "uint256",
          "name": "_rodadaId",
          "type": "uint256"
        }
      ],
      "name": "fecharApostas",
      "outputs": [],
      "stateMutability": "nonpayable",
      "type": "function"
    },
    {
      "inputs": [
        {
          "internalType": "uint256",
          "name": "_ticketPrice",
          "type": "uint256"
        }
      ],
      "name": "iniciarNovaRodada",
      "outputs": [],
      "stateMutability": "nonpayable",
      "type": "function"
    },
    {
      "inputs": [],
      "name": "owner",
      "outputs": [
        {
          "internalType": "address",
          "name": "",
          "type": "address"
        }
      ],
      "stateMutability": "view",
      "type": "function"
    },
    {
      "inputs": [],
      "name": "pausar",
      "outputs": [],
      "stateMutability": "nonpayable",
      "type": "function"
    },
    {
      "inputs": [],
      "name": "paused",
      "outputs": [
        {
          "internalType": "bool",
          "name": "",
          "type": "bool"
        }
      ],
      "stateMutability": "view",
      "type": "function"
    },
    {
      "inputs": [],
      "name": "pendingOwner",
      "outputs": [
        {
          "internalType": "address",
          "name": "",
          "type": "address"
        }
      ],
      "stateMutability": "view",
      "type": "function"
    },
    {
      "inputs": [
        {
          "internalType": "uint256",
          "name": "_rodadaId",
          "type": "uint256"
        },
        {
          "internalType": "uint256[5]",
          "name": "_milhares",
          "type": "uint256[5]"
        }
      ],
      "name": "registrarResultadosDaFederalEProcessar",
      "outputs": [],
      "stateMutability": "nonpayable",
      "type": "function"
    },
    {
      "inputs": [
        {
          "internalType": "uint256",
          "name": "_rodadaId",
          "type": "uint256"
        }
      ],
      "name": "reivindicarPremio",
      "outputs": [],
      "stateMutability": "nonpayable",
      "type": "function"
    },
    {
      "inputs": [],
      "name": "renounceOwnership",
      "outputs": [],
      "stateMutability": "nonpayable",
      "type": "function"
    },
    {
      "inputs": [
        {
          "internalType": "address",
          "name": "_para",
          "type": "address"
        }
      ],
      "name": "retirarTaxas",
      "outputs": [],
      "stateMutability": "nonpayable",
      "type": "function"
    },
    {
      "inputs": [],
      "name": "rodadaAtualId",
      "outputs": [
        {
          "internalType": "uint256",
          "name": "",
          "type": "uint256"
        }
      ],
      "stateMutability": "view",
      "type": "function"
    },
    {
      "inputs": [
        {
          "internalType": "uint256",
          "name": "",
          "type": "uint256"
        }
      ],
      "name": "rodadas",
      "outputs": [
        {
          "internalType": "uint256",
          "name": "id",
          "type": "uint256"
        },
        {
          "internalType": "enum BlockChainBetBrasil.StatusRodada",
          "name": "status",
          "type": "uint8"
        },
        {
          "internalType": "uint256",
          "name": "ticketPrice",
          "type": "uint256"
        },
        {
          "internalType": "uint256",
          "name": "totalArrecadado",
          "type": "uint256"
        },
        {
          "internalType": "uint256",
          "name": "premioTotal",
          "type": "uint256"
        },
        {
          "internalType": "bool",
          "name": "milharesForamInseridos",
          "type": "bool"
        },
        {
          "internalType": "uint256",
          "name": "numeroDeVencedores",
          "type": "uint256"
        },
        {
          "internalType": "uint256",
          "name": "timestampAbertura",
          "type": "uint256"
        },
        {
          "internalType": "uint256",
          "name": "timestampFechamentoApostas",
          "type": "uint256"
        },
        {
          "internalType": "uint256",
          "name": "timestampResultadosProcessados",
          "type": "uint256"
        }
      ],
      "stateMutability": "view",
      "type": "function"
    },
    {
      "inputs": [
        {
          "internalType": "uint256",
          "name": "_novaTaxaPercentual",
          "type": "uint256"
        }
      ],
      "name": "setTaxaPlataforma",
      "outputs": [],
      "stateMutability": "nonpayable",
      "type": "function"
    },
    {
      "inputs": [
        {
          "internalType": "uint256",
          "name": "_novoPreco",
          "type": "uint256"
        }
      ],
      "name": "setTicketPriceBase",
      "outputs": [],
      "stateMutability": "nonpayable",
      "type": "function"
    },
    {
      "inputs": [],
      "name": "stablecoin",
      "outputs": [
        {
          "internalType": "contract IERC20",
          "name": "",
          "type": "address"
        }
      ],
      "stateMutability": "view",
      "type": "function"
    },
    {
      "inputs": [],
      "name": "taxaPlataformaPercentual",
      "outputs": [
        {
          "internalType": "uint256",
          "name": "",
          "type": "uint256"
        }
      ],
      "stateMutability": "view",
      "type": "function"
    },
    {
      "inputs": [],
      "name": "taxasAcumuladas",
      "outputs": [
        {
          "internalType": "uint256",
          "name": "",
          "type": "uint256"
        }
      ],
      "stateMutability": "view",
      "type": "function"
    },
    {
      "inputs": [],
      "name": "ticketPriceBase",
      "outputs": [
        {
          "internalType": "uint256",
          "name": "",
          "type": "uint256"
        }
      ],
      "stateMutability": "view",
      "type": "function"
    },
    {
      "inputs": [
        {
          "internalType": "address",
          "name": "newOwner",
          "type": "address"
        }
      ],
      "name": "transferOwnership",
      "outputs": [],
      "stateMutability": "nonpayable",
      "type": "function"
    }
  ],
  "bytecode": "0x60a060405260056006553480156200001657600080fd5b506040516200355e3803806200355e83398181016040528101906200003c919062000369565b33600073ffffffffffffffffffffffffffffffffffffffff168173ffffffffffffffffffffffffffffffffffffffff1603620000b25760006040517f1e4fbdf7000000000000000000000000000000000000000000000000000000008152600401620000a99190620003c1565b60405180910390fd5b620000c381620001c760201b60201c565b506001600281905550600073ffffffffffffffffffffffffffffffffffffffff168273ffffffffffffffffffffffffffffffffffffffff16036200013e576040517f08c379a000000000000000000000000000000000000000000000000000000000815260040162000135906200043f565b60405180910390fd5b6000811162000184576040517f08c379a00000000000000000000000000000000000000000000000000000000081526004016200017b90620004d7565b60405180910390fd5b8173ffffffffffffffffffffffffffffffffffffffff1660808173ffffffffffffffffffffffffffffffffffffffff1681525050806005819055505050620004f9565b600160006101000a81549073ffffffffffffffffffffffffffffffffffffffff0219169055620001fd816200020060201b60201c565b50565b60008060009054906101000a900473ffffffffffffffffffffffffffffffffffffffff169050816000806101000a81548173ffffffffffffffffffffffffffffffffffffffff021916908373ffffffffffffffffffffffffffffffffffffffff1602179055508173ffffffffffffffffffffffffffffffffffffffff168173ffffffffffffffffffffffffffffffffffffffff167f8be0079c531659141344cd1fd0a4f28419497f9722a3daafe3b4186f6b6457e060405160405180910390a35050565b600080fd5b600073ffffffffffffffffffffffffffffffffffffffff82169050919050565b6000620002f682620002c9565b9050919050565b6200030881620002e9565b81146200031457600080fd5b50565b6000815190506200032881620002fd565b92915050565b6000819050919050565b62000343816200032e565b81146200034f57600080fd5b50565b600081519050620003638162000338565b92915050565b60008060408385031215620003835762000382620002c4565b5b6000620003938582860162000317565b9250506020620003a68582860162000352565b9150509250929050565b620003bb81620002e9565b82525050565b6000602082019050620003d86000830184620003b0565b92915050565b600082825260208201905092915050565b7f456e64657265636f20646f20737461626c65636f696e20696e76616c69646f00600082015250565b600062000427601f83620003de565b91506200043482620003ef565b602082019050919050565b600060208201905081810360008301526200045a8162000418565b9050919050565b7f507265636f2062617365206465766520736572206d61696f7220717565207a6560008201527f726f000000000000000000000000000000000000000000000000000000000000602082015250565b6000620004bf602283620003de565b9150620004cc8262000461565b604082019050919050565b60006020820190508181036000830152620004f281620004b0565b9050919050565b6080516130346200052a600039600081816108380152818161122301528181611536015261167d01526130346000f3fe608060405234801561001057600080fd5b50600436106101425760003560e01c806388cfcdac116100b8578063aef547291161007c578063aef54729146102fa578063e30c397814610316578063e9cbd82214610334578063f27fa80714610352578063f2fde38b1461035c578063f98ec8d51461037857610142565b806388cfcdac1461026a5780638da5cb5b146102865780639552b601146102a45780639b564454146102c25780639b982ea1146102de57610142565b80635c4541e41161010a5780635c4541e4146101f45780635c975abb14610212578063715018a61461023057806379ba50971461023a5780637e2164aa1461024457806383d6d0871461026057610142565b806314ba1c261461014757806319e22778146101655780632f672fb91461019e57806331a30ac4146101ba5780635530e39a146101d8575b600080fd5b61014f610394565b60405161015c9190611f14565b60405180910390f35b61017f600480360381019061017a9190611f60565b61039a565b6040516101959a9998979695949392919061201f565b60405180910390f35b6101b860048036038101906101b39190611f60565b610408565b005b6101c261049c565b6040516101cf9190611f14565b60405180910390f35b6101f260048036038101906101ed9190611f60565b6104a2565b005b6101fc61060d565b6040516102099190611f14565b60405180910390f35b61021a610613565b60405161022791906120bb565b60405180910390f35b61023861062a565b005b61024261063e565b005b61025e60048036038101906102599190611f60565b6106cd565b005b610268610762565b005b610284600480360381019061027f91906120fd565b610774565b005b61028e610c19565b60405161029b919061217f565b60405180910390f35b6102ac610c42565b6040516102b99190611f14565b60405180910390f35b6102dc60048036038101906102d7919061219a565b610c48565b005b6102f860048036038101906102f39190611f60565b610fcf565b005b610314600480360381019061030f9190611f60565b61135e565b005b61031e61150a565b60405161032b919061217f565b60405180910390f35b61033c611534565b6040516103499190612239565b60405180910390f35b61035a611558565b005b61037660048036038101906103719190612280565b61156a565b005b610392600480360381019061038d9190612280565b611617565b005b60035481565b60046020528060005260406000206000915090508060000154908060010160009054906101000a900460ff169080600201549080600301549080600401549080600b0160009054906101000a900460ff169080601601549080601901549080601a01549080601b015490508a565b6104106117b6565b60008111610453576040517f08c379a000000000000000000000000000000000000000000000000000000000815260040161044a9061230a565b60405180910390fd5b80600581905550807f39f0ab33058dfec5b1639a9bd4ffb7b5266c07ac20c03f580f9b26be492ca0cc61048461183d565b604051610491919061217f565b60405180910390a250565b60055481565b6104aa6117b6565b6104b2611845565b8060018060048111156104c8576104c7611f8d565b5b6004600084815260200190815260200160002060010160009054906101000a900460ff1660048111156104fe576104fd611f8d565b5b1461053e576040517f08c379a000000000000000000000000000000000000000000000000000000000815260040161053590612376565b60405180910390fd5b6003548314610582576040517f08c379a0000000000000000000000000000000000000000000000000000000008152600401610579906123e2565b60405180910390fd5b600060046000858152602001908152602001600020905060028160010160006101000a81548160ff021916908360048111156105c1576105c0611f8d565b5b02179055504281601a0181905550837faa7d4fc8677b48a8144f3a84996cfd70e75301ec9afe26fab2d1cb89da93120f426040516105ff9190611f14565b60405180910390a250505050565b60075481565b6000600160149054906101000a900460ff16905090565b6106326117b6565b61063c6000611886565b565b600061064861183d565b90508073ffffffffffffffffffffffffffffffffffffffff1661066961150a565b73ffffffffffffffffffffffffffffffffffffffff16146106c157806040517f118cdaa70000000000000000000000000000000000000000000000000000000081526004016106b8919061217f565b60405180910390fd5b6106ca81611886565b50565b6106d56117b6565b6032811115610719576040517f08c379a00000000000000000000000000000000000000000000000000000000081526004016107109061244e565b60405180910390fd5b80600681905550807fbf2232986523b215b1535dedf12c6947fc4f9f55c503cdce39483cb89e58b62161074a61183d565b604051610757919061217f565b60405180910390a250565b61076a6117b6565b6107726118b7565b565b61077c611845565b610784611919565b600354600180600481111561079c5761079b611f8d565b5b6004600084815260200190815260200160002060010160009054906101000a900460ff1660048111156107d2576107d1611f8d565b5b14610812576040517f08c379a000000000000000000000000000000000000000000000000000000000815260040161080990612376565b60405180910390fd5b6000600460006003548152602001908152602001600020905060008160020154905060007f000000000000000000000000000000000000000000000000000000000000000073ffffffffffffffffffffffffffffffffffffffff166323b872dd3330856040518463ffffffff1660e01b81526004016108939392919061246e565b6020604051808303816000875af11580156108b2573d6000803e3d6000fd5b505050506040513d601f19601f820116820180604052508101906108d691906124d1565b905080610918576040517f08c379a000000000000000000000000000000000000000000000000000000000815260040161090f90612570565b60405180910390fd5b60005b6005811015610a2f57600188826005811061093957610938612590565b5b6020020135101580156109645750601988826005811061095c5761095b612590565b5b602002013511155b6109a3576040517f08c379a000000000000000000000000000000000000000000000000000000000815260040161099a9061260b565b60405180910390fd5b60018782600581106109b8576109b7612590565b5b6020020135101580156109e3575060198782600581106109db576109da612590565b5b602002013511155b610a22576040517f08c379a0000000000000000000000000000000000000000000000000000000008152600401610a1990612677565b60405180910390fd5b808060010191505061091b565b508260050160405180608001604052803373ffffffffffffffffffffffffffffffffffffffff168152602001896005806020026040519081016040528092919082600560200280828437600081840152601f19601f8201169050808301925050505050508152602001886005806020026040519081016040528092919082600560200280828437600081840152601f19601f82011690508083019250505050505081526020018481525090806001815401808255809150506001900390600052602060002090600c020160009091909190915060008201518160000160006101000a81548173ffffffffffffffffffffffffffffffffffffffff021916908373ffffffffffffffffffffffffffffffffffffffff160217905550602082015181600101906005610b60929190611e5e565b50604082015181600601906005610b78929190611e5e565b50606082015181600b0155505081836003016000828254610b9991906126c6565b925050819055503373ffffffffffffffffffffffffffffffffffffffff166003547f104a8d3c2521836a18486b6a637b9d7d8bac46c73b12c50da64e3ca80384939b60018660050180549050610bef91906126fa565b8a8a604051610c0093929190612747565b60405180910390a35050505050610c1561195d565b5050565b60008060009054906101000a900473ffffffffffffffffffffffffffffffffffffffff16905090565b60065481565b610c506117b6565b610c58611845565b816002806004811115610c6e57610c6d611f8d565b5b6004600084815260200190815260200160002060010160009054906101000a900460ff166004811115610ca457610ca3611f8d565b5b14610ce4576040517f08c379a0000000000000000000000000000000000000000000000000000000008152600401610cdb90612376565b60405180910390fd5b600060046000868152602001908152602001600020905080600b0160009054906101000a900460ff1615610d4d576040517f08c379a0000000000000000000000000000000000000000000000000000000008152600401610d44906127f1565b60405180910390fd5b60005b6005811015610dc25761270f858260058110610d6f57610d6e612590565b5b60200201351115610db5576040517f08c379a0000000000000000000000000000000000000000000000000000000008152600401610dac9061285d565b60405180910390fd5b8080600101915050610d50565b508381600601906005610dd6929190611e9e565b50600181600b0160006101000a81548160ff02191690831515021790555060005b6005811015610f44576000826006018260058110610e1857610e17612590565b5b01549050600081604051602001610e2e906128d4565b604051602081830303815290604052805190602001208985604051602001610e599493929190612935565b604051602081830303815290604052805190602001209050600160198260001c610e8391906129b2565b610e8d91906126c6565b84600c018460058110610ea357610ea2612590565b5b0181905550600082604051602001610eba90612a2f565b604051602081830303815290604052805190602001208a86604051602001610ee59493929190612935565b604051602081830303815290604052805190602001209050600160198260001c610f0f91906129b2565b610f1991906126c6565b856011018560058110610f2f57610f2e612590565b5b01819055505050508080600101915050610df7565b504281601b0181905550847f963df2201c4e5c6b8a4d8adac3fc5a7079901e8669849ab111566d6fae66d9fe8583600c018460110142604051610f8a9493929190612b3a565b60405180910390a2610f9b85611967565b60038160010160006101000a81548160ff02191690836004811115610fc357610fc2611f8d565b5b02179055505050505050565b610fd7611919565b610fdf611845565b60006004600083815260200190815260200160002090506003600481111561100a57611009611f8d565b5b8160010160009054906101000a900460ff16600481111561102e5761102d611f8d565b5b148061106e575060048081111561104857611047611f8d565b5b8160010160009054906101000a900460ff16600481111561106c5761106b611f8d565b5b145b6110ad576040517f08c379a00000000000000000000000000000000000000000000000000000000081526004016110a490612bce565b60405180910390fd5b60008160170160003373ffffffffffffffffffffffffffffffffffffffff1673ffffffffffffffffffffffffffffffffffffffff16815260200190815260200160002054905060008111611136576040517f08c379a000000000000000000000000000000000000000000000000000000000815260040161112d90612c3a565b60405180910390fd5b8160180160003373ffffffffffffffffffffffffffffffffffffffff1673ffffffffffffffffffffffffffffffffffffffff16815260200190815260200160002060009054906101000a900460ff16156111c5576040517f08c379a00000000000000000000000000000000000000000000000000000000081526004016111bc90612ca6565b60405180910390fd5b60018260180160003373ffffffffffffffffffffffffffffffffffffffff1673ffffffffffffffffffffffffffffffffffffffff16815260200190815260200160002060006101000a81548160ff02191690831515021790555060007f000000000000000000000000000000000000000000000000000000000000000073ffffffffffffffffffffffffffffffffffffffff1663a9059cbb33846040518363ffffffff1660e01b815260040161127c929190612cc6565b6020604051808303816000875af115801561129b573d6000803e3d6000fd5b505050506040513d601f19601f820116820180604052508101906112bf91906124d1565b905080611301576040517f08c379a00000000000000000000000000000000000000000000000000000000081526004016112f890612d61565b60405180910390fd5b3373ffffffffffffffffffffffffffffffffffffffff16847f3dc95316bc726bbe0b91a1fcff646d2ed55f44c568c056f1f2338e79681bab60846040516113489190611f14565b60405180910390a350505061135b61195d565b50565b6113666117b6565b61136e611845565b6000600354111561143a57600060046000600354815260200190815260200160002060010160009054906101000a900460ff1690506004808111156113b6576113b5611f8d565b5b8160048111156113c9576113c8611f8d565b5b14806113f95750600360048111156113e4576113e3611f8d565b5b8160048111156113f7576113f6611f8d565b5b145b611438576040517f08c379a000000000000000000000000000000000000000000000000000000000815260040161142f90612dcd565b60405180910390fd5b505b6003600081548092919061144d90612ded565b919050555060006004600060035481526020019081526020016000209050600354816000018190555060018160010160006101000a81548160ff0219169083600481111561149e5761149d611f8d565b5b0217905550600082116114b3576005546114b5565b815b81600201819055504281601901819055506003547fb9eb494b9ee064755f8107a0c1f687a9825d362cc8aaffdef29109167ae6b3868260020154426040516114fe929190612e35565b60405180910390a25050565b6000600160009054906101000a900473ffffffffffffffffffffffffffffffffffffffff16905090565b7f000000000000000000000000000000000000000000000000000000000000000081565b6115606117b6565b611568611cf7565b565b6115726117b6565b80600160006101000a81548173ffffffffffffffffffffffffffffffffffffffff021916908373ffffffffffffffffffffffffffffffffffffffff1602179055508073ffffffffffffffffffffffffffffffffffffffff166115d2610c19565b73ffffffffffffffffffffffffffffffffffffffff167f38d16b8cac22d99fc7c124b9cd0de2d3fa1faef420bfe791d8c362d765e2270060405160405180910390a350565b61161f6117b6565b611627611919565b6000600754905060008111611671576040517f08c379a000000000000000000000000000000000000000000000000000000000815260040161166890612eaa565b60405180910390fd5b600060078190555060007f000000000000000000000000000000000000000000000000000000000000000073ffffffffffffffffffffffffffffffffffffffff1663a9059cbb84846040518363ffffffff1660e01b81526004016116d6929190612cc6565b6020604051808303816000875af11580156116f5573d6000803e3d6000fd5b505050506040513d601f19601f8201168201806040525081019061171991906124d1565b90508061175b576040517f08c379a000000000000000000000000000000000000000000000000000000000815260040161175290612f3c565b60405180910390fd5b8273ffffffffffffffffffffffffffffffffffffffff167f5427210fd21f5253836a17d94cf298dc03dd1cb238d9065946b73eb951decb1c836040516117a19190611f14565b60405180910390a250506117b361195d565b50565b6117be61183d565b73ffffffffffffffffffffffffffffffffffffffff166117dc610c19565b73ffffffffffffffffffffffffffffffffffffffff161461183b576117ff61183d565b6040517f118cdaa7000000000000000000000000000000000000000000000000000000008152600401611832919061217f565b60405180910390fd5b565b600033905090565b61184d610613565b15611884576040517fd93c066500000000000000000000000000000000000000000000000000000000815260040160405180910390fd5b565b600160006101000a81549073ffffffffffffffffffffffffffffffffffffffff02191690556118b481611d5a565b50565b6118bf611845565b60018060146101000a81548160ff0219169083151502179055507f62e78cea01bee320cd4e420270b5ea74000d11b0c9f74754ebdbfc544b05a25861190261183d565b60405161190f919061217f565b60405180910390a1565b6002805403611954576040517f3ee5aeb500000000000000000000000000000000000000000000000000000000815260040160405180910390fd5b60028081905550565b6001600281905550565b60006004600083815260200190815260200160002090506000606460065483600301546119949190612f5c565b61199e9190612f9e565b905080600760008282546119b291906126c6565b925050819055508082600301546119c991906126fa565b82600401819055506000826005018054905067ffffffffffffffff8111156119f4576119f3612fcf565b5b604051908082528060200260200182016040528015611a225781602001602082028036833780820191505090505b5090506000805b8460050180549050811015611b8f576000856005018281548110611a5057611a4f612590565b5b90600052602060002090600c0201905060006001905060005b6005811015611af85787600c018160058110611a8857611a87612590565b5b0154836001018260058110611aa057611a9f612590565b5b0154141580611add5750876011018160058110611ac057611abf612590565b5b0154836006018260058110611ad857611ad7612590565b5b015414155b15611aeb5760009150611af8565b8080600101915050611a69565b508015611b80578160000160009054906101000a900473ffffffffffffffffffffffffffffffffffffffff16858581518110611b3757611b36612590565b5b602002602001019073ffffffffffffffffffffffffffffffffffffffff16908173ffffffffffffffffffffffffffffffffffffffff16815250508380611b7c90612ded565b9450505b50508080600101915050611a29565b508084601601819055506000811115611c81576000818560040154611bb49190612f9e565b905060005b82811015611c405781866017016000868481518110611bdb57611bda612590565b5b602002602001015173ffffffffffffffffffffffffffffffffffffffff1673ffffffffffffffffffffffffffffffffffffffff1681526020019081526020016000206000828254611c2c91906126c6565b925050819055508080600101915050611bb9565b50857f5af8c49f6caa59eaab3bf32b454661d52e79f7c4d07bc28911460c5bb1f1c6868383604051611c73929190612e35565b60405180910390a250611cf0565b836004015460076000828254611c9791906126c6565b9250508190555060008460040181905550847f3379a7cd8ec4d7957de965914eb51ddea11aeeeb2b040212e7010136db7894c1848660030154611cda91906126fa565b604051611ce79190611f14565b60405180910390a25b5050505050565b611cff611e1e565b6000600160146101000a81548160ff0219169083151502179055507f5db9ee0a495bf2e6ff9c91a7834c1ba4fdd244a5e8aa4e537bd38aeae4b073aa611d4361183d565b604051611d50919061217f565b60405180910390a1565b60008060009054906101000a900473ffffffffffffffffffffffffffffffffffffffff169050816000806101000a81548173ffffffffffffffffffffffffffffffffffffffff021916908373ffffffffffffffffffffffffffffffffffffffff1602179055508173ffffffffffffffffffffffffffffffffffffffff168173ffffffffffffffffffffffffffffffffffffffff167f8be0079c531659141344cd1fd0a4f28419497f9722a3daafe3b4186f6b6457e060405160405180910390a35050565b611e26610613565b611e5c576040517f8dfc202b00000000000000000000000000000000000000000000000000000000815260040160405180910390fd5b565b8260058101928215611e8d579160200282015b82811115611e8c578251825591602001919060010190611e71565b5b509050611e9a9190611ede565b5090565b8260058101928215611ecd579160200282015b82811115611ecc578235825591602001919060010190611eb1565b5b509050611eda9190611ede565b5090565b5b80821115611ef7576000816000905550600101611edf565b5090565b6000819050919050565b611f0e81611efb565b82525050565b6000602082019050611f296000830184611f05565b92915050565b600080fd5b611f3d81611efb565b8114611f4857600080fd5b50565b600081359050611f5a81611f34565b92915050565b600060208284031215611f7657611f75611f2f565b5b6000611f8484828501611f4b565b91505092915050565b7f4e487b7100000000000000000000000000000000000000000000000000000000600052602160045260246000fd5b60058110611fcd57611fcc611f8d565b5b50565b6000819050611fde82611fbc565b919050565b6000611fee82611fd0565b9050919050565b611ffe81611fe3565b82525050565b60008115159050919050565b61201981612004565b82525050565b600061014082019050612035600083018d611f05565b612042602083018c611ff5565b61204f604083018b611f05565b61205c606083018a611f05565b6120696080830189611f05565b61207660a0830188612010565b61208360c0830187611f05565b61209060e0830186611f05565b61209e610100830185611f05565b6120ac610120830184611f05565b9b9a5050505050505050505050565b60006020820190506120d06000830184612010565b92915050565b600080fd5b6000819050826020600502820111156120f7576120f66120d6565b5b92915050565b600080610140838503121561211557612114611f2f565b5b6000612123858286016120db565b92505060a0612134858286016120db565b9150509250929050565b600073ffffffffffffffffffffffffffffffffffffffff82169050919050565b60006121698261213e565b9050919050565b6121798161215e565b82525050565b60006020820190506121946000830184612170565b92915050565b60008060c083850312156121b1576121b0611f2f565b5b60006121bf85828601611f4b565b92505060206121d0858286016120db565b9150509250929050565b6000819050919050565b60006121ff6121fa6121f58461213e565b6121da565b61213e565b9050919050565b6000612211826121e4565b9050919050565b600061222382612206565b9050919050565b61223381612218565b82525050565b600060208201905061224e600083018461222a565b92915050565b61225d8161215e565b811461226857600080fd5b50565b60008135905061227a81612254565b92915050565b60006020828403121561229657612295611f2f565b5b60006122a48482850161226b565b91505092915050565b600082825260208201905092915050565b7f507265636f206465766520736572206d61696f7220717565207a65726f000000600082015250565b60006122f4601d836122ad565b91506122ff826122be565b602082019050919050565b60006020820190508181036000830152612323816122e7565b9050919050565b7f53746174757320646120726f6461646120696e76616c69646f00000000000000600082015250565b60006123606019836122ad565b915061236b8261232a565b602082019050919050565b6000602082019050818103600083015261238f81612353565b9050919050565b7f536f20706f64652066656368617220726f6461646120617475616c0000000000600082015250565b60006123cc601b836122ad565b91506123d782612396565b602082019050919050565b600060208201905081810360008301526123fb816123bf565b9050919050565b7f54617861206e616f20706f646520736572203e20353025000000000000000000600082015250565b60006124386017836122ad565b915061244382612402565b602082019050919050565b600060208201905081810360008301526124678161242b565b9050919050565b60006060820190506124836000830186612170565b6124906020830185612170565b61249d6040830184611f05565b949350505050565b6124ae81612004565b81146124b957600080fd5b50565b6000815190506124cb816124a5565b92915050565b6000602082840312156124e7576124e6611f2f565b5b60006124f5848285016124bc565b91505092915050565b7f46616c6861206e61207472616e73666572656e63696120646f20737461626c6560008201527f636f696e2e20566f6365206170726f766f75206f20636f6e747261746f3f0000602082015250565b600061255a603e836122ad565b9150612565826124fe565b604082019050919050565b600060208201905081810360008301526125898161254d565b9050919050565b7f4e487b7100000000000000000000000000000000000000000000000000000000600052603260045260246000fd5b7f50726f676e6f737469636f205820696e76616c69646f00000000000000000000600082015250565b60006125f56016836122ad565b9150612600826125bf565b602082019050919050565b60006020820190508181036000830152612624816125e8565b9050919050565b7f50726f676e6f737469636f205920696e76616c69646f00000000000000000000600082015250565b60006126616016836122ad565b915061266c8261262b565b602082019050919050565b6000602082019050818103600083015261269081612654565b9050919050565b7f4e487b7100000000000000000000000000000000000000000000000000000000600052601160045260246000fd5b60006126d182611efb565b91506126dc83611efb565b92508282019050808211156126f4576126f3612697565b5b92915050565b600061270582611efb565b915061271083611efb565b925082820390508181111561272857612727612697565b5b92915050565b82818337505050565b61274360a0838361272e565b5050565b60006101608201905061275d6000830186611f05565b61276a6020830185612737565b61277760c0830184612737565b949350505050565b7f526573756c7461646f73206a6120696e73657269646f7320706172612065737460008201527f6120726f64616461000000000000000000000000000000000000000000000000602082015250565b60006127db6028836122ad565b91506127e68261277f565b604082019050919050565b6000602082019050818103600083015261280a816127ce565b9050919050565b7f4d696c68617220696e76616c6964612028302d39393939290000000000000000600082015250565b60006128476018836122ad565b915061285282612811565b602082019050919050565b600060208201905081810360008301526128768161283a565b9050919050565b600081905092915050565b7f424c4f434b434841494e4245545f580000000000000000000000000000000000600082015250565b60006128be600f8361287d565b91506128c982612888565b600f82019050919050565b60006128df826128b1565b9150819050919050565b6000819050919050565b6129046128ff82611efb565b6128e9565b82525050565b6000819050919050565b6000819050919050565b61292f61292a8261290a565b612914565b82525050565b600061294182876128f3565b602082019150612951828661291e565b60208201915061296182856128f3565b60208201915061297182846128f3565b60208201915081905095945050505050565b7f4e487b7100000000000000000000000000000000000000000000000000000000600052601260045260246000fd5b60006129bd82611efb565b91506129c883611efb565b9250826129d8576129d7612983565b5b828206905092915050565b7f424c4f434b434841494e4245545f590000000000000000000000000000000000600082015250565b6000612a19600f8361287d565b9150612a24826129e3565b600f82019050919050565b6000612a3a82612a0c565b9150819050919050565b600060059050919050565b600081905092915050565b6000819050919050565b612a6d81611efb565b82525050565b6000612a7f8383612a64565b60208301905092915050565b60008160001c9050919050565b6000819050919050565b6000612ab5612ab083612a8b565b612a98565b9050919050565b6000612ac88254612aa2565b9050919050565b6000600182019050919050565b612ae581612a44565b612aef8184612a4f565b9250612afa82612a5a565b8060005b83811015612b3257612b0f82612abc565b612b198782612a73565b9650612b2483612acf565b925050600181019050612afe565b505050505050565b600061020082019050612b506000830187612737565b612b5d60a0830186612adc565b612b6b610140830185612adc565b612b796101e0830184611f05565b95945050505050565b7f5072656d696f73206e616f20646973706f6e6976656973000000000000000000600082015250565b6000612bb86017836122ad565b9150612bc382612b82565b602082019050919050565b60006020820190508181036000830152612be781612bab565b9050919050565b7f4e656e68756d207072656d696f20706172612072656976696e64696361720000600082015250565b6000612c24601e836122ad565b9150612c2f82612bee565b602082019050919050565b60006020820190508181036000830152612c5381612c17565b9050919050565b7f5072656d696f206a612072656976696e64696361646f00000000000000000000600082015250565b6000612c906016836122ad565b9150612c9b82612c5a565b602082019050919050565b60006020820190508181036000830152612cbf81612c83565b9050919050565b6000604082019050612cdb6000830185612170565b612ce86020830184611f05565b9392505050565b7f46616c686120616f207472616e736665726972207072656d696f20287374616260008201527f6c65636f696e207472616e736665722900000000000000000000000000000000602082015250565b6000612d4b6030836122ad565b9150612d5682612cef565b604082019050919050565b60006020820190508181036000830152612d7a81612d3e565b9050919050565b7f526f6461646120616e746572696f72206e616f2066696e616c697a6164610000600082015250565b6000612db7601e836122ad565b9150612dc282612d81565b602082019050919050565b60006020820190508181036000830152612de681612daa565b9050919050565b6000612df882611efb565b91507fffffffffffffffffffffffffffffffffffffffffffffffffffffffffffffffff8203612e2a57612e29612697565b5b600182019050919050565b6000604082019050612e4a6000830185611f05565b612e576020830184611f05565b9392505050565b7f53656d2074617861732070617261207265746972617200000000000000000000600082015250565b6000612e946016836122ad565b9150612e9f82612e5e565b602082019050919050565b60006020820190508181036000830152612ec381612e87565b9050919050565b7f46616c686120616f20726574697261722074617861732028737461626c65636f60008201527f696e207472616e73666572290000000000000000000000000000000000000000602082015250565b6000612f26602c836122ad565b9150612f3182612eca565b604082019050919050565b60006020820190508181036000830152612f5581612f19565b9050919050565b6000612f6782611efb565b9150612f7283611efb565b9250828202612f8081611efb565b91508282048414831517612f9757612f96612697565b5b5092915050565b6000612fa982611efb565b9150612fb483611efb565b925082612fc457612fc3612983565b5b828204905092915050565b7f4e487b7100000000000000000000000000000000000000000000000000000000600052604160045260246000fdfea2646970667358221220dcb0d371707157e3cca384eab79f45b14ad795be44d6001ecca877803f4215c064736f6c63430008180033",
  "linkReferences": {},
  "deployedLinkReferences": {}
}